:020000040800F2
:10000000900700206D1A0008391900083B190008F4
:100010003D1900083F1900084119000800000000C0
:10002000000000000000000000000000431900086C
:100030004519000800000000471900084919000888
:100040007D1A0008811A0008851A0008891A00081C
:100050008D1A00084D1900084F190008911A000860
:10006000951A0008991A00089D1A0008A11A00089C
:10007000A51A0008A91A0008AD1A0008B11A00084C
:10008000B51A000855190008B91A00080000000048
:10009000000000000000000000000000BD1A000881
:1000A000C11A0008C51A0008C91A0008CD1A0008AC
:1000B000D11A0008D51A00085B190008D91A0008DF
:1000C000DD1A0008E11A0008E51A0008E91A00081C
:1000D000ED1A0008F11A0008F51A000800000000E7
:1000E000F91A0008FD1A0008011B000800000000B2
:1000F000000000000000000000000000051B0008D8
:1001000000000000091B00080D1B0008111B00085F
:1001100000000000000000000000000000000000DF
:10012000151B0008191B00081D1B0008211B0008D7
:10013000251B000800000000000000000000000077
:10014000000000000000000000000000291B000863
:100150002D1B0008311B0008351B0008391B000847
:100160003D1B0008411B00080000000000000000CB
:10017000000000000000000000000000000000007F
:1001800000000000451B0008000000000000000007
:10019000491B00084D1B000802206870211D2068C3
:1001A00000F091F90121A9720120A870E97028716D
:1001B0006971A871E971287269726870002032BD96
:1001C000886800F007000628704738B5040001D1A0
:1001D000012032BD00F00AF818B900F003F800F071
:1001E0008CFAD9E7002129702046704704F13C05BC
:1001F0006878704710B5044604F13E0009B90278EA
:1002000007E0042908BF427803D008290CBF827890
:10021000C278012A01D0012010BD11B9022202705A
:100220000AE0042902D10222427005E0082907BF32
:10023000022282700223C3702068012200F02EFA8D
:1002400000F027F818BFB1F1804F0DD000F01DF875
:100250001CBFDFF86400814206D000F012F81CBF1A
:10026000DFF85C00814202D1FFF7AAFF01D000F065
:1002700002F8002010BD0A46106840F00100086036
:100280007047DFF8382091427047DFF8282091420C
:1002900070472268DFF81800824205D1DFF8242079
:1002A000116841F4004111602168814270470000EB
:1002B000000001400004004000080040000C004025
:1002C000004001404400014070B504462068C56804
:1002D0000669B20714D5A90712D56FF002020261B0
:1002E00001212177806910F0030F204602D000F031
:1002F00079FA03E000F077FA00F07BF8002020772D
:10030000710715D5680713D520686FF004010161E6
:1003100002222277806910F4407F204602D000F04C
:1003200061FA03E000F05FFA00F063F80020207744
:10033000310715D5280713D520686FF00801016132
:1003400004222277C06910F0030F204602D000F08B
:1003500049FA03E000F047FA00F04BF8002020775C
:10036000F10615D5E80613D520686FF0100202617A
:1003700008212177C06910F4407F204602D000F0A8
:1003800031FA03E000F02FFA00F033F80020207774
:1003900006F0010205F001010A4206D021686FF063
:1003A00001020A61204600F01FFA300608D52A062D
:1003B00006D520686FF080010161204600F015FA33
:1003C000700608D56A0606D520686FF04001016105
:1003D000204600F00BFAB0060AD5AA0608D5216817
:1003E0006FF0200008612046BDE8704000F0FFB9C2
:1003F00070BD204600F0FCB9002084F83C0028467F
:10040000704770B500F058F801D1022070BD01208E
:1004100084F83C0032B1042A15D0082A25D00C2AD1
:1004200034D045E0206800F08FF82168886940F0FA
:1004300008008861886920F0040088618A69306951
:1004400002438A6135E0206800F0A0F820688169E5
:1004500041F400618161816921F480618161816978
:10046000326941EA0221816123E0206800F0B7F897
:100470002168C86940F00800C861C86920F004001C
:10048000C861CA6930690243CA6112E0206800F09D
:10049000CEF82068C16941F40061C161C16921F4ED
:1004A0008061C161C169326941EA0221C16100E034
:1004B0000125FFF7A1FF70BD0446002594F83C001C
:1004C00001280E467047F0B503686C4C6C4F6D4ABE
:1004D0006D4DA04218BFB0F1804F04D0A8421CBFA0
:1004E0009042B8420CD123F070064B683343A042CF
:1004F00018BFB0F1804F0ED0A84218BF90420AD06A
:10050000B8421CBF614DA84205D0614A90421CBF51
:10051000604DA84203D123F44072CB6813434A696B
:100520008D68C56223F0800313430A688262A0428B
:1005300002D10A6958490A600121046844F00404A0
:10054000046041610360F0BD30B500F090F822F026
:100550000202436885690C6825F073052C438D6899
:100560001543464A90420BD123F44073CA6825F0E4
:10057000080515434A691A438B6925F0040513439E
:100580004360846149684163056230BD70B5046AA7
:10059000026A22F01002026224F020044568836996
:1005A0000A688E6823F4E64343EA0223334A904202
:1005B00044EA06140DD1CA684E6924F0800444EA66
:1005C00002148A6925F44065164324F0400445EA84
:1005D00086054560836149688163046270BD70B5BA
:1005E000046A026A22F48072026224F4007445688C
:1005F000C2690B688E6822F0730213431F4A90424F
:1006000044EA06240DD1CA684E6924F4006444EA21
:1006100002248A6925F44055164324F4806445EA8F
:1006200006154560C3614968C163046270BD70B559
:10063000036A026A22F48052026223F4005344687F
:10064000C2690D688E6822F4E64242EA05220B4D2B
:10065000A84243EA063304D14D6924F4804444EAB5
:1006600085144460C26149680164036270BD026A16
:10067000036A5B085B0003627047000000000140F2
:10068000000C004000080040000400400040014011
:1006900000440140004801403000014010B501F025
:1006A0001F01046A01238B409C43046202FA01F19A
:1006B000046A2143016210BD80B5002000904348C8
:1006C000416841F480414160416801F480410091FA
:1006D0000021009B0091026842F0805202600022DB
:1006E000006800F0805000900520009B00F0B5F8F5
:1006F000BDE80240052000F0CFB838B504463449C3
:1007000022688A4238D100200090324D2F48324A68
:10071000016841F004010160006800F004000090ED
:100720004FF08060009968604021A9600020E86077
:100730004FF4806129614FF4006068614FF400510B
:100740002A60A9614FF48070E8614FF440320021C3
:100750002A626962284600F0C7F808B100F017FC69
:100760002562AC63002200211E2000F076F8BDE86F
:1007700032401E2000F090B831BD10B586B004465E
:100780001421002201A800F005FC236810498B42C7
:100790001AD10020009002221048016841F008019F
:1007A0000160006800F0080000904FF4E0400099FC
:1007B00002920021039101900221032205910492EB
:1007C00001A9074800F0F0FB06B010BD4038024018
:1007D0000008004050000020A06002403038024075
:1007E000000C024070477047704770477047704771
:1007F000704730B5016884684218416802EB5103C4
:10080000C90703D54C4401E0491C08D19A4218BFDE
:1008100012F9011B01D10C3030BD12F8015B002927
:1008200004F8015BF0D4491EF7D5EFE70A01010097
:1008300002D4274B5A547047264801F00F01014457
:1008400001F8042C704724490A6860F30A2240F238
:10085000FA5060F31F420A60704770B51E4C23685F
:10086000C3F302230124C3F10705052D2FBF0F2673
:10087000C3F1070604FA06F6761E1D1D072D34BFC8
:100880000023DB1E3140994004FA03F3BDE87040B9
:100890005B1E1A401143C9E7010007D4012200F092
:1008A0001F010E4B8A40400943F820207047401E2C
:1008B000B0F1807F01D30120704709494860F022E0
:1008C0000848027000238B6007220A6000207047EE
:1008D00000E400E018ED00E00CED00E000E100E0D5
:1008E00010E000E023ED00E070B5044600F044FCA9
:1008F00006460CB9012070BD04F134050220687071
:100900000021297000F065F822681068C1070AD537
:1009100000F032FC801B0628F6D320202862032139
:100920006970032070BD1368DFF834036168034009
:10093000A0680B43E168034320690B4361690343EB
:10094000A0690B43E16903430B43216A606A1943C1
:10095000042803D1E06A0843216B01431160226837
:100960005369606ADB08042840EAC3030AD1A66A17
:10097000E06A334330B1A16991B9002E18BF022E4D
:1009800020D017D35361204600F086F9A96A3F2290
:100990008A408260012000222A626870002070BDB7
:1009A000B1F5005F0AD1032EECD8DFE806F00D0B9D
:1009B0000D03E7E7B0F1C07FE4D105E0022E03D9D3
:1009C000F61EDFD1C001DDD540212962012068700B
:1009D00070BD216808684008400008607047F8B59D
:1009E000044604F13407002538787E6A012801D1D5
:1009F0000220F2BD01203870787801281DD14FF017
:100A0000020C87F801C000203862204600F034F95B
:100A1000B86A3F2101FA00FCC6F808C020680168E6
:100A200041F016010160F86820B12168086840F0C3
:100A30000800086000F005F801E03D700225284636
:100A4000F2BD2168086840F0010008607047F8B501
:100A5000044604F134056E6A00F08EFB07466878A0
:100A6000022805D080212962002028700120F2BDD3
:100A70002168086820F016000860216800F0F4F88A
:100A800004BF6869002804D02168086820F00800C5
:100A90000860FFF79EFF22681168C8070CD500F0B8
:100AA0006BFBC01B0628F6D3202028620321697047
:100AB000002028700320F2BDA86A3F218140B16068
:100AC0000020012169702870F2BD2DE9FC41064625
:100AD00006F134050020634A00904FF416506F6A07
:100AE00011683C68B1FBF0F8A86A082101FA00F02F
:100AF00004420ED03068026853070AD5026822F01B
:100B000004020260A86A8140B960296A41F00101CB
:100B10002962A86A24FA00F2D1070BD5326851691C
:100B20000A0607D5012101FA00F0B860286A40F0F2
:100B3000020028620421A86A81400C4208D0336870
:100B40001A68900704D5B960286A40F0040028624A
:100B50001021A86A81400C421BD033681A68100724
:100B600017D5B96030680268510307D500680103E2
:100B70000BD5696969B1304688470AE00168CA0542
:100B800003D4016821F008010160E96809B1304629
:100B90008847A86A202181400C4241D03268106801
:100BA000C3063DD5B9603068697805291ED1026851
:100BB00022F016020260316800F056F804BF68693E
:100BC000002804D03068016821F0080101603F224C
:100BD000A86A8240BA60012169700020E969287022
:100BE00000293AD03046BDE8FC41084701684A0375
:100BF00007D5006801030FD4296989B130468847B9
:100C00000EE00168CA0507D4016821F010010160F7
:100C100001226A7000202870A96809B1304688470F
:100C2000286AD0B1296AC80711D5052169703168D1
:100C3000FFF7D0FE0098401C8045009003D3326837
:100C40001168C807F6D40121697000202870A969CD
:100C500019B13046BDE8FC410847BDE8F38100000A
:100C60003F8010F0BC000020486920F080004861FF
:100C7000E86800287047000030B50468256825F44E
:100C80008025256063608068402802D1A260E16011
:100C900030BDA160E26030BD10B501461822086881
:100CA00007A400F0FF03103BB3FBF2F2800AA35C41
:100CB000CB658002042A28BF001D886510BD000096
:100CC000000610160006101670B500257820A549FC
:100CD000A54A062332F815606B4305EB4504CE5256
:100CE00005F12803782693FBF6F600FB163301EB9B
:100CF000440432F813306380782605F1500393FBE7
:100D0000F6F600FB163332F81330A3806D1C782DF5
:100D1000DFDB70BD012800D0704710B500F02CFA61
:100D2000924CE16C401AC82824D300F025FAE06404
:100D30002078401E8041C00F2070207860B160682C
:100D4000884900F14C024FF4B47304F15000FFF7EE
:100D500046FE00F0C1F810BD04F15000FFF777FE29
:100D60006068C26822F48072C26000214163002280
:100D70008263C16310BD18B589B000F003FA00F0BA
:100D8000B1F800F0FFF80020794C0090216841F0A4
:100D900080012160206800F0800000900020009A0F
:100DA0000090216841F001012160206800F00100FD
:100DB00000900020009A00904FF44412216841F006
:100DC00008012160206800F00800009001200099CF
:100DD000019000210391029201A9664800F0E4F815
:100DE000002200210620FFF738FD0620FFF754FD02
:100DF000002000900022216841F4001121600021B0
:100E000020685A4C00F40010009000981120FFF761
:100E100024FD1120FFF740FD0020009001901C21CF
:100E2000002202A800F0B6F8534860604F2120204D
:100E3000E060A160002040F2E7316061E061216183
:100E4000201DFFF7C2F908B100F0A1F800200090C2
:100E500001906946201D00F0AFF908B100F097F845
:100E600060200290002203920492069200F030F873
:100E700008B100F08CF8042200F02AF808B100F064
:100E800086F8082200F024F808B100F080F8201D50
:100E9000FFF773FCFFF718FF606840F20D218164D3
:100EA00000F14C024FF4B4732E4904F15000FFF7E7
:100EB00096FD00F011F80021201DFFF79BF9042199
:100EC000201DFFF797F90821201DFFF793F9FEE792
:100ED00002A9201DFFF795BA6168C86840F48070C8
:100EE000C860704780B592B03021002206A800F09B
:100EF00051F800F047F8002000904FF480321F486E
:100F0000016841F080510160006800F0805000905D
:100F10000020009900901A48016841F440410160A6
:100F2000006800F4404000900120009906900021E4
:100F300007920C9106A800F07BF908B100F027F8A1
:100F40000F220121019202910022002103920491BB
:100F5000059201A800F0F6FA08B100F018F813B0F5
:100F600000BD0000C0000020101800080000002094
:100F70003038024000000240000800404038024083
:100F8000007000401421002201A800F003B872B6DE
:100F9000FEE700004018491C1CBFB1F1010100F838
:100FA000012DF9D1704700002DE9F84F0022694C5E
:100FB000DFF8A4814FF00F0901230F6893401F4011
:100FC0009F4240F0B8804FEA420C032505FA0CF529
:100FD0004E686FEA050E06F00305012D1CBF06F0F2
:100FE0000306022E10D18568CE680EEA050506FAC2
:100FF0000CF635438560456825EA03034D68C5F363
:10100000001595402B43436093000D7905F00305CF
:10101000032D1ED0C5688E680EEA050506FA0CF68B
:101020003543C5600D7905F00305022D11D1D508B2
:1010300000EB850503F01C06D5F820B009FA06FA86
:101040002BEA0A0BD1F810A00AFA06F646EA0B06BC
:101050002E6205680EEA05060D7905F0030505FA0E
:101060000CF545EA060CC0F800C04D6815F4403F89
:1010700061D04FF0000ECDF800E04FEA920CD8F8A6
:10108000005045F48045C8F8005003F00C03D8F830
:1010900000E00EF4804ECDF800E009FA03F6009D62
:1010A000DFF8B8E05EF82C50B5432D4EB04208BFD3
:1010B0004FF0000E18D02B4EB04208BF4FF0010E7B
:1010C00012D0294EB04208BF4FF0020E0CD0274E6E
:1010D000B04208BF4FF0030E06D0254EB0420CBF01
:1010E0004FF0040E4FF0070E0EFA03F3DFF86CE03A
:1010F0002B434EF82C30FE43A3684D683340ED027D
:1011000048BF3B43A360E3684D683340AD0248BF2E
:101110003B43E36063684D683340AD0348BF3B43E6
:101120006360236806EA030C4B68DB0348BF47EAA9
:101130000C0CC4F800C0521C0F2A7FF63DAFBDE86E
:10114000F18F0C490A6803461A421CBF0B60FFF777
:10115000E1BD7047003C014044380240083801407E
:10116000000002400004024000080240000C02405F
:1011700000100240143C014001484068704700BF25
:10118000B000002080B50B48016841F40071016097
:10119000026842F480620260016841F4807101607B
:1011A0000320FFF750FB0F2000F05CFAFFF784FAF2
:1011B000002002BD003C024070B500F13C031A78EB
:1011C000012A01D1022070BD01241C7002225A7034
:1011D00006687568B4680A6825F07005154375607F
:1011E00002681048824218BFB2F1804F0BD00C4DFC
:1011F000AA421CBF0C48824205D0084DAA421CBF1F
:101200000A48824204D1486824F080040443946070
:10121000012159700020187070BD0000000C0040C2
:101220000004004000000140000800400040014070
:101230002DE9F843040016D02078DFF8F862C107E2
:1012400013D5B06800F00C00042807D0B06800F097
:101250000C0008283DD1706841023AD530688103FE
:1012600003D56068002800F05F812078B24F8107C5
:1012700019D5B06810F00C0F07D0B06800F00C0062
:1012800008285CD17068410259D43068810703D5C1
:10129000E068012840F048813168206921F0F801B8
:1012A00041EAC00131602178080773D56069A3491C
:1012B000002862D001220A60FFF75EFF0546706FCA
:1012C000810767D4FFF758FF401B0228F7D9032096
:1012D0002DE16068B0F5803F03D1306840F4803084
:1012E00012E0B0F5A02F08D1306840F480203060C3
:1012F000316841F48031316007E0326822F4803295
:101300003260306820F480203060606858B1FFF7A8
:1013100033FF054631688803A7D4FFF72DFF401B34
:101320006528F7D3D3E7FFF727FF05463168880321
:101330009BD5FFF721FF401B6528F7D3C7E7E0687F
:1013400068B101213960FFF717FF05463068810752
:10135000A2D4FFF711FF401B0228F7D9B7E70022FC
:101360003A60FFF709FF0546316888079BD5FFF70C
:1013700003FF401B0228F7D9A9E70860FFF7FCFE2E
:101380000546716F880705D5FFF7F6FE401B02285A
:10139000F7D99CE72078410760D5306C0025C10063
:1013A0000BD4002000900125316C41F08051316454
:1013B000306C00F0805000900098DFF88481D8F8FD
:1013C0000000C10513D4D8F8000040F48070C8F8BC
:1013D0000000FFF7D1FE8146D8F80010C80506D4FA
:1013E000FFF7CAFEA0EB09000228F5D96FE7A06855
:1013F000012805D00528306F06D140F00400306781
:10140000306F40F0010005E0400840003067306F69
:1014100020F00400306741F28938A06860B1FFF71E
:10142000ABFE8146316F880713D4FFF7A5FEA0EB12
:1014300009004045F6D34AE7FFF79EFE8146316F2B
:10144000880706D5FFF798FEA0EB09004045F6D3C4
:101450003DE71DB1306C20F080503064A069002859
:1014600064D0B16801F00C0108293AD002282AD1D1
:1014700000203866FFF780FE05463068810105D5FB
:10148000FFF77AFE401B0228F7D920E7E269206ABD
:10149000616A0243A06A400842EA8112401E42EAA1
:1014A0000042E06A42EA0062726001213966FFF799
:1014B00063FE04463068810138D4FFF75DFE001BEF
:1014C0000228F7D903E700203866FFF755FE0446E7
:1014D000306881012AD5FFF74FFE001B0228F7D99B
:1014E000F5E6012820D07068E16900F480028A42A4
:1014F00002BF00F03F02216A8A4201BF47F6C07274
:101500000240616AB2EB811F0ED1A16A00F4403241
:1015100002F580324908B2EB014F02BF00F0706063
:10152000E16AB0EB016F01D0012000E00020BDE8CE
:10153000F28300BF0038024000004742800E47425D
:10154000007000402DE9F04104000F4654D0404E99
:10155000306800F00700B84202D200F073F84BD1B7
:1015600021683C4D880712D5490703D5A86840F487
:10157000E050A8602078010703D5A86840F46040D7
:10158000A860A968A06821F0F0010143A960217852
:10159000C80729D56068012802D129688A0305E0B7
:1015A000022818BF032803D129688A0103D423E045
:1015B00029688A0720D5A968890840EA8100A860BF
:1015C000FFF7DAFD8046A868616800F00C00B0EB18
:1015D000810F09D0FFF7D0FDA0EB080041F289315F
:1015E0008842F0D303202BE0306800F007008742E8
:1015F00004D200F027F801D0012021E02078420732
:1016000005D5A968E06821F4E0510143A96021787B
:101610000A0706D5A868216920F4604040EAC100A5
:10162000A86000F03FF8AA680B490C4BC2F3031204
:10163000895CC84018600A48006800F013F8002070
:10164000BDE8F0813770316801F00701B942704799
:10165000003C024000380240F8190008BC0000209D
:10166000B800002038B50D4D0D4A297804464FF4D6
:101670007A731068B3FBF1F1B0FBF1F0FFF717F9E3
:1016800050B9102C08D2002221464FF0FF30FFF74E
:10169000E4F8AC60002032BD012032BDB000002073
:1016A000BC00002030B5144C606800F00C00042829
:1016B00002D0082802D01DE0104830BD2268216801
:1016C0000023480202F03F0204D525680B48C5F309
:1016D000881103E021680A48C1F38811A0FB0101C9
:1016E00000F010F82168C1F30141491C4900B0FB2A
:1016F000F1F030BD024830BD0438024000127A00DB
:101700000024F400D3BBD9B1B2F5803F5BD2022AEA
:101710001ED98C46B1FBF2F102FB11C31B0443EA54
:101720001043B3FBF2FC02FB1C3380B240EA0343DC
:10173000B3FBF2F002FB103240EA0C40002370478A
:10174000022A05D98446B0FBF2F002FB10C27047B2
:101750004AB105D100F0010249085FEA3000704744
:1017600000220023704700F051B80B000200002156
:1017700000207047F7D3002200237047904271EB9E
:10178000030CF2D370B5B1FA81F4B3FA83F52C1BD4
:10179000A340C4F1200532FA05F63343A2405FF0BE
:1017A0000046E64002E05B085FEA3202841A71EB11
:1017B000030524BF204629467641F4D302000B00DE
:1017C0003000002170BD70B5B1FA81F4B2FA82F533
:1017D000C4F120046419B4F12006DAD3B2405FF0FA
:1017E0000044F440002502E052085FEA3303C61AC1
:1017F00071EB020E24BF3046714664416D41F3D354
:1018000002000B002000290070BD0000704700009E
:10181000F4010E02280242025B0274028C02A3024F
:10182000BA02CF02E402F70209031A0329033703BD
:1018300043034E0357035E03640368036A036B03A9
:101840006A03680364035E0357034E0343033703CD
:1018500029031A030903F702E402CF02BA02A30222
:101860008C0274025B02420228020E02F401D901CA
:10187000BF01A5018C0173015B0144012D01180119
:101880000301F000DE00CD00BE00B000A40099000E
:101890009000890083007F007D007C007D007F0038
:1018A0008300890090009900A400B000BE00CD0024
:1018B000DE00F000030118012D0144015B017301FA
:1018C0008C01A501BF01D901F4010E0228024202D8
:1018D0005B0274028C02A302BA02CF02E402F70296
:1018E00009031A032903370343034E0300000000D2
:1018F00000000000000000000000000000000000E8
:1019000030B4002412E050F8043BDA0744BF4B44E3
:101910005B1E091F042943F8044BFAD21A468D07AF
:1019200044BF1C80921CCB0748BF147050F8041BA6
:101930000029E8D130BC7047FEE7FEE7FEE7FEE78E
:10194000FEE770477047704700F00EB870470120FF
:10195000FFF7F7BB0248FFF7B8B80248FEF7B4BC80
:10196000500000200400002002484268017851180D
:1019700041607047B000002010B5034A7A44083235
:10198000024C7C44A41D03E0400000005C00000009
:1019900004E01168101D114488470246A242F8D1A4
:1019A00010BD00004EF68851CEF20001086840F4E8
:1019B00070000860BFF34F8FBFF36F8F4FF001705F
:1019C000E1EE100A7047000039FFFFFFD00200006F
:1019D000C0000020000000001BEEFFFF74010000AB
:1019E00024000000000000200249086840F4700054
:1019F0000860704788ED00E0000000000000000073
:101A0000010203040607080900F00DF8002801D0C0
:101A1000FFF7B2FFAFF300800020AFF30080FFF7C5
:101A2000AAF900F002F80120704700F001B80000A8
:101A30000746384600F002F8FBE7000080B5AFF338
:101A40000080024A11001820ABBEFBE7260002000E
:101A50000548014603B4684680F30988AFF3008067
:101A6000FFF7A0FFFFF7D0FFA5EDF5FE0148804787
:101A700001480047E9190008511A0008FFF7FEBFA6
:101A8000FFF7FEBFFFF7FEBFFFF7FEBFFFF7FEBF8A
:101A9000FFF7FEBFFFF7FEBFFFF7FEBFFFF7FEBF7A
:101AA000FFF7FEBFFFF7FEBFFFF7FEBFFFF7FEBF6A
:101AB000FFF7FEBFFFF7FEBFFFF7FEBFFFF7FEBF5A
:101AC000FFF7FEBFFFF7FEBFFFF7FEBFFFF7FEBF4A
:101AD000FFF7FEBFFFF7FEBFFFF7FEBFFFF7FEBF3A
:101AE000FFF7FEBFFFF7FEBFFFF7FEBFFFF7FEBF2A
:101AF000FFF7FEBFFFF7FEBFFFF7FEBFFFF7FEBF1A
:101B0000FFF7FEBFFFF7FEBFFFF7FEBFFFF7FEBF09
:101B1000FFF7FEBFFFF7FEBFFFF7FEBFFFF7FEBFF9
:101B2000FFF7FEBFFFF7FEBFFFF7FEBFFFF7FEBFE9
:101B3000FFF7FEBFFFF7FEBFFFF7FEBFFFF7FEBFD9
:101B4000FFF7FEBFFFF7FEBFFFF7FEBFFFF7FEBFC9
:101B500000018100D0000001F9000010FC00022407
:021B6000F4008F
:0400000508001A5184
:00000001FF
